{
  "contractName": "UniFlash_KOVAN",
  "abi": [
    {
      "inputs": [],
      "payable": true,
      "stateMutability": "payable",
      "type": "constructor"
    },
    {
      "payable": true,
      "stateMutability": "payable",
      "type": "fallback"
    },
    {
      "constant": true,
      "inputs": [],
      "name": "DAI",
      "outputs": [
        {
          "internalType": "address payable",
          "name": "",
          "type": "address"
        }
      ],
      "payable": false,
      "stateMutability": "view",
      "type": "function"
    },
    {
      "constant": true,
      "inputs": [],
      "name": "SAI",
      "outputs": [
        {
          "internalType": "address payable",
          "name": "",
          "type": "address"
        }
      ],
      "payable": false,
      "stateMutability": "view",
      "type": "function"
    },
    {
      "constant": true,
      "inputs": [],
      "name": "USDC",
      "outputs": [
        {
          "internalType": "address payable",
          "name": "",
          "type": "address"
        }
      ],
      "payable": false,
      "stateMutability": "view",
      "type": "function"
    },
    {
      "constant": true,
      "inputs": [],
      "name": "WETH",
      "outputs": [
        {
          "internalType": "address payable",
          "name": "",
          "type": "address"
        }
      ],
      "payable": false,
      "stateMutability": "view",
      "type": "function"
    },
    {
      "constant": true,
      "inputs": [],
      "name": "contract_address",
      "outputs": [
        {
          "internalType": "address payable",
          "name": "",
          "type": "address"
        }
      ],
      "payable": false,
      "stateMutability": "view",
      "type": "function"
    },
    {
      "constant": true,
      "inputs": [
        {
          "internalType": "address",
          "name": "",
          "type": "address"
        }
      ],
      "name": "currencies",
      "outputs": [
        {
          "internalType": "uint256",
          "name": "",
          "type": "uint256"
        }
      ],
      "payable": false,
      "stateMutability": "view",
      "type": "function"
    },
    {
      "constant": true,
      "inputs": [],
      "name": "flashAmount",
      "outputs": [
        {
          "internalType": "uint256",
          "name": "",
          "type": "uint256"
        }
      ],
      "payable": false,
      "stateMutability": "view",
      "type": "function"
    },
    {
      "constant": true,
      "inputs": [],
      "name": "owner",
      "outputs": [
        {
          "internalType": "address",
          "name": "",
          "type": "address"
        }
      ],
      "payable": false,
      "stateMutability": "view",
      "type": "function"
    },
    {
      "constant": true,
      "inputs": [
        {
          "internalType": "address",
          "name": "token",
          "type": "address"
        }
      ],
      "name": "tokenToMarketId",
      "outputs": [
        {
          "internalType": "uint256",
          "name": "",
          "type": "uint256"
        }
      ],
      "payable": false,
      "stateMutability": "view",
      "type": "function"
    },
    {
      "constant": true,
      "inputs": [],
      "name": "uniswapV2_factoryAddress",
      "outputs": [
        {
          "internalType": "address payable",
          "name": "",
          "type": "address"
        }
      ],
      "payable": false,
      "stateMutability": "view",
      "type": "function"
    },
    {
      "constant": true,
      "inputs": [],
      "name": "uniswapV2_routerAddress",
      "outputs": [
        {
          "internalType": "address payable",
          "name": "",
          "type": "address"
        }
      ],
      "payable": false,
      "stateMutability": "view",
      "type": "function"
    },
    {
      "constant": false,
      "inputs": [
        {
          "internalType": "address",
          "name": "newOwner",
          "type": "address"
        }
      ],
      "name": "transferOnwership",
      "outputs": [],
      "payable": false,
      "stateMutability": "nonpayable",
      "type": "function"
    },
    {
      "constant": false,
      "inputs": [
        {
          "internalType": "address",
          "name": "tokenA",
          "type": "address"
        },
        {
          "internalType": "address",
          "name": "tokenB",
          "type": "address"
        },
        {
          "internalType": "address",
          "name": "tokenC",
          "type": "address"
        },
        {
          "internalType": "uint256",
          "name": "flashAmount",
          "type": "uint256"
        }
      ],
      "name": "getFlashloan",
      "outputs": [],
      "payable": false,
      "stateMutability": "nonpayable",
      "type": "function"
    },
    {
      "constant": false,
      "inputs": [
        {
          "internalType": "address",
          "name": "",
          "type": "address"
        },
        {
          "components": [
            {
              "internalType": "address",
              "name": "owner",
              "type": "address"
            },
            {
              "internalType": "uint256",
              "name": "number",
              "type": "uint256"
            }
          ],
          "internalType": "struct Structs.Info",
          "name": "",
          "type": "tuple"
        },
        {
          "internalType": "bytes",
          "name": "data",
          "type": "bytes"
        }
      ],
      "name": "callFunction",
      "outputs": [],
      "payable": false,
      "stateMutability": "nonpayable",
      "type": "function"
    },
    {
      "constant": false,
      "inputs": [],
      "name": "withdrawETH",
      "outputs": [],
      "payable": false,
      "stateMutability": "nonpayable",
      "type": "function"
    },
    {
      "constant": false,
      "inputs": [
        {
          "internalType": "address",
          "name": "token",
          "type": "address"
        }
      ],
      "name": "withdrawToken",
      "outputs": [],
      "payable": false,
      "stateMutability": "nonpayable",
      "type": "function"
    }
  ],
  "bytecode": "0x6080604052734ec3570cadaaee08ae384779b0f3a45ef85289de6000806101000a81548173ffffffffffffffffffffffffffffffffffffffff021916908373ffffffffffffffffffffffffffffffffffffffff16021790555073d0a1e359811322d97991e03f863a0c30c2cf029c600160006101000a81548173ffffffffffffffffffffffffffffffffffffffff021916908373ffffffffffffffffffffffffffffffffffffffff1602179055507389d24a6b4ccb1b6faa2625fe562bdd9a23260359600260006101000a81548173ffffffffffffffffffffffffffffffffffffffff021916908373ffffffffffffffffffffffffffffffffffffffff16021790555073e22da380ee6b445bb8273c81944adeb6e8450422600360006101000a81548173ffffffffffffffffffffffffffffffffffffffff021916908373ffffffffffffffffffffffffffffffffffffffff16021790555073c4375b7de8af5a38a93548eb8453a498222c4ff2600460006101000a81548173ffffffffffffffffffffffffffffffffffffffff021916908373ffffffffffffffffffffffffffffffffffffffff160217905550737a250d5630b4cf539739df2c5dacb4c659f2488d600660006101000a81548173ffffffffffffffffffffffffffffffffffffffff021916908373ffffffffffffffffffffffffffffffffffffffff160217905550735c69bee701ef814a2b6a3edd4b1652cb9cc5aa6f600760006101000a81548173ffffffffffffffffffffffffffffffffffffffff021916908373ffffffffffffffffffffffffffffffffffffffff1602179055506000600860006101000a81548173ffffffffffffffffffffffffffffffffffffffff021916908373ffffffffffffffffffffffffffffffffffffffff16021790555030600960006101000a81548173ffffffffffffffffffffffffffffffffffffffff021916908373ffffffffffffffffffffffffffffffffffffffff1602179055506040518060400160405280600481526020017f5045524d00000000000000000000000000000000000000000000000000000000815250600c90805190602001906200032692919062000709565b50600160009054906101000a900473ffffffffffffffffffffffffffffffffffffffff16600d60006101000a81548173ffffffffffffffffffffffffffffffffffffffff021916908373ffffffffffffffffffffffffffffffffffffffff160217905550600660009054906101000a900473ffffffffffffffffffffffffffffffffffffffff16600e60006101000a81548173ffffffffffffffffffffffffffffffffffffffff021916908373ffffffffffffffffffffffffffffffffffffffff160217905550600760009054906101000a900473ffffffffffffffffffffffffffffffffffffffff16600f60006101000a81548173ffffffffffffffffffffffffffffffffffffffff021916908373ffffffffffffffffffffffffffffffffffffffff160217905550600160056000600160009054906101000a900473ffffffffffffffffffffffffffffffffffffffff1673ffffffffffffffffffffffffffffffffffffffff1673ffffffffffffffffffffffffffffffffffffffff16815260200190815260200160002081905550600260056000600260009054906101000a900473ffffffffffffffffffffffffffffffffffffffff1673ffffffffffffffffffffffffffffffffffffffff1673ffffffffffffffffffffffffffffffffffffffff16815260200190815260200160002081905550600360056000600360009054906101000a900473ffffffffffffffffffffffffffffffffffffffff1673ffffffffffffffffffffffffffffffffffffffff1673ffffffffffffffffffffffffffffffffffffffff16815260200190815260200160002081905550600460056000600460009054906101000a900473ffffffffffffffffffffffffffffffffffffffff1673ffffffffffffffffffffffffffffffffffffffff1673ffffffffffffffffffffffffffffffffffffffff1681526020019081526020016000208190555033600a60006101000a81548173ffffffffffffffffffffffffffffffffffffffff021916908373ffffffffffffffffffffffffffffffffffffffff1602179055506000600160009054906101000a900473ffffffffffffffffffffffffffffffffffffffff1673ffffffffffffffffffffffffffffffffffffffff1634604051620006779062000816565b60006040518083038185875af1925050503d8060008114620006b6576040519150601f19603f3d011682016040523d82523d6000602084013e620006bb565b606091505b505090508062000702576040517f08c379a0000000000000000000000000000000000000000000000000000000008152600401620006f9906200082d565b60405180910390fd5b506200086b565b828054600181600116156101000203166002900490600052602060002090601f016020900481019282601f106200074c57805160ff19168380011785556200077d565b828001600101855582156200077d579182015b828111156200077c5782518255916020019190600101906200075f565b5b5090506200078c919062000790565b5090565b620007b591905b80821115620007b157600081600090555060010162000797565b5090565b90565b6000620007c76010836200085a565b91507f6661696c20746f206765742077657468000000000000000000000000000000006000830152602082019050919050565b6000620008096000836200084f565b9150600082019050919050565b60006200082382620007fa565b9150819050919050565b600060208201905081810360008301526200084881620007b8565b9050919050565b600081905092915050565b600082825260208201905092915050565b612950806200087b6000396000f3fe6080604052600436106100f35760003560e01c8063966b35141161008a578063b826878811610059578063b826878814610305578063daa0e7a814610342578063e086e5ec1461036b578063e0bab4c414610382576100f3565b8063966b35141461025b578063a1b73eb914610286578063ad5c4648146102af578063b570137a146102da576100f3565b806389476069116100c657806389476069146101b357806389a30271146101dc5780638b418713146102075780638da5cb5b14610230576100f3565b80634b3fb7f8146100f557806351a525f6146101205780636036cba31461014b57806360bcfd5814610188575b005b34801561010157600080fd5b5061010a6103ad565b60405161011791906123e1565b60405180910390f35b34801561012c57600080fd5b506101356103d3565b60405161014291906123e1565b60405180910390f35b34801561015757600080fd5b50610172600480360361016d9190810190611c32565b6103f9565b60405161017f9190612593565b60405180910390f35b34801561019457600080fd5b5061019d610411565b6040516101aa91906123e1565b60405180910390f35b3480156101bf57600080fd5b506101da60048036036101d59190810190611c32565b610437565b005b3480156101e857600080fd5b506101f1610682565b6040516101fe91906123e1565b60405180910390f35b34801561021357600080fd5b5061022e60048036036102299190810190611d4a565b6106a8565b005b34801561023c57600080fd5b5061024561076a565b60405161025291906123ab565b60405180910390f35b34801561026757600080fd5b50610270610790565b60405161027d91906123e1565b60405180910390f35b34801561029257600080fd5b506102ad60048036036102a89190810190611c32565b6107b6565b005b3480156102bb57600080fd5b506102c4610854565b6040516102d191906123e1565b60405180910390f35b3480156102e657600080fd5b506102ef61087a565b6040516102fc9190612593565b60405180910390f35b34801561031157600080fd5b5061032c60048036036103279190810190611c32565b610880565b6040516103399190612593565b60405180910390f35b34801561034e57600080fd5b5061036960048036036103649190810190611ce7565b610915565b005b34801561037757600080fd5b5061038061095c565b005b34801561038e57600080fd5b506103976109ff565b6040516103a491906123e1565b60405180910390f35b600260009054906101000a900473ffffffffffffffffffffffffffffffffffffffff1681565b600660009054906101000a900473ffffffffffffffffffffffffffffffffffffffff1681565b60056020528060005260406000206000915090505481565b600760009054906101000a900473ffffffffffffffffffffffffffffffffffffffff1681565b600a60009054906101000a900473ffffffffffffffffffffffffffffffffffffffff1673ffffffffffffffffffffffffffffffffffffffff163373ffffffffffffffffffffffffffffffffffffffff161461049157600080fd5b60008173ffffffffffffffffffffffffffffffffffffffff166370a08231600960009054906101000a900473ffffffffffffffffffffffffffffffffffffffff166040518263ffffffff1660e01b81526004016104ee91906123c6565b60206040518083038186803b15801561050657600080fd5b505afa15801561051a573d6000803e3d6000fd5b505050506040513d601f19601f8201168201806040525061053e9190810190611e20565b90508173ffffffffffffffffffffffffffffffffffffffff1663095ea7b3600960009054906101000a900473ffffffffffffffffffffffffffffffffffffffff16836040518363ffffffff1660e01b815260040161059d9291906123fc565b602060405180830381600087803b1580156105b757600080fd5b505af11580156105cb573d6000803e3d6000fd5b505050506040513d601f19601f820116820180604052506105ef9190810190611df7565b508173ffffffffffffffffffffffffffffffffffffffff1663a9059cbb33836040518363ffffffff1660e01b815260040161062b9291906123fc565b602060405180830381600087803b15801561064557600080fd5b505af1158015610659573d6000803e3d6000fd5b505050506040513d601f19601f8201168201806040525061067d9190810190611df7565b505050565b600360009054906101000a900473ffffffffffffffffffffffffffffffffffffffff1681565b6000809054906101000a900473ffffffffffffffffffffffffffffffffffffffff1673ffffffffffffffffffffffffffffffffffffffff163373ffffffffffffffffffffffffffffffffffffffff1614610737576040517f08c379a000000000000000000000000000000000000000000000000000000000815260040161072e90612533565b60405180910390fd5b600080600080858561074c9190810190611c84565b935093509350935061076084848484610a25565b5050505050505050565b600a60009054906101000a900473ffffffffffffffffffffffffffffffffffffffff1681565b600960009054906101000a900473ffffffffffffffffffffffffffffffffffffffff1681565b600a60009054906101000a900473ffffffffffffffffffffffffffffffffffffffff1673ffffffffffffffffffffffffffffffffffffffff163373ffffffffffffffffffffffffffffffffffffffff161461081057600080fd5b80600a60006101000a81548173ffffffffffffffffffffffffffffffffffffffff021916908373ffffffffffffffffffffffffffffffffffffffff16021790555050565b600160009054906101000a900473ffffffffffffffffffffffffffffffffffffffff1681565b600b5481565b600080600560008473ffffffffffffffffffffffffffffffffffffffff1673ffffffffffffffffffffffffffffffffffffffff1681526020019081526020016000205490506000811415610909576040517f08c379a000000000000000000000000000000000000000000000000000000000815260040161090090612573565b60405180910390fd5b60018103915050919050565b61092084848461111d565b606084848484604051602001610939949392919061244e565b60405160208183030381529060405290506109558583836114d9565b5050505050565b600a60009054906101000a900473ffffffffffffffffffffffffffffffffffffffff1673ffffffffffffffffffffffffffffffffffffffff163373ffffffffffffffffffffffffffffffffffffffff16146109b657600080fd5b3373ffffffffffffffffffffffffffffffffffffffff166108fc479081150290604051600060405180830381858888f193505050501580156109fc573d6000803e3d6000fd5b50565b600460009054906101000a900473ffffffffffffffffffffffffffffffffffffffff1681565b60606002604051908082528060200260200182016040528015610a575781602001602082028038833980820191505090505b5090508481600081518110610a6857fe5b602002602001019073ffffffffffffffffffffffffffffffffffffffff16908173ffffffffffffffffffffffffffffffffffffffff16815250508381600181518110610ab057fe5b602002602001019073ffffffffffffffffffffffffffffffffffffffff16908173ffffffffffffffffffffffffffffffffffffffff168152505060606002604051908082528060200260200182016040528015610b1c5781602001602082028038833980820191505090505b5090508481600081518110610b2d57fe5b602002602001019073ffffffffffffffffffffffffffffffffffffffff16908173ffffffffffffffffffffffffffffffffffffffff16815250508381600181518110610b7557fe5b602002602001019073ffffffffffffffffffffffffffffffffffffffff16908173ffffffffffffffffffffffffffffffffffffffff168152505060606002604051908082528060200260200182016040528015610be15781602001602082028038833980820191505090505b5090508481600081518110610bf257fe5b602002602001019073ffffffffffffffffffffffffffffffffffffffff16908173ffffffffffffffffffffffffffffffffffffffff16815250508681600181518110610c3a57fe5b602002602001019073ffffffffffffffffffffffffffffffffffffffff16908173ffffffffffffffffffffffffffffffffffffffff16815250508673ffffffffffffffffffffffffffffffffffffffff1663095ea7b3600660009054906101000a900473ffffffffffffffffffffffffffffffffffffffff16866040518363ffffffff1660e01b8152600401610cd19291906123fc565b602060405180830381600087803b158015610ceb57600080fd5b505af1158015610cff573d6000803e3d6000fd5b505050506040513d601f19601f82011682018060405250610d239190810190611df7565b506060600e60009054906101000a900473ffffffffffffffffffffffffffffffffffffffff1673ffffffffffffffffffffffffffffffffffffffff166338ed17398660018730426040518663ffffffff1660e01b8152600401610d8a9594939291906125ae565b600060405180830381600087803b158015610da457600080fd5b505af1158015610db8573d6000803e3d6000fd5b505050506040513d6000823e3d601f19601f82011682018060405250610de19190810190611db6565b90508673ffffffffffffffffffffffffffffffffffffffff1663095ea7b3600660009054906101000a900473ffffffffffffffffffffffffffffffffffffffff1683600181518110610e2f57fe5b60200260200101516040518363ffffffff1660e01b8152600401610e549291906123fc565b602060405180830381600087803b158015610e6e57600080fd5b505af1158015610e82573d6000803e3d6000fd5b505050506040513d601f19601f82011682018060405250610ea69190810190611df7565b506060600e60009054906101000a900473ffffffffffffffffffffffffffffffffffffffff1673ffffffffffffffffffffffffffffffffffffffff166338ed173983600181518110610ef457fe5b602002602001015160018730426040518663ffffffff1660e01b8152600401610f219594939291906125ae565b600060405180830381600087803b158015610f3b57600080fd5b505af1158015610f4f573d6000803e3d6000fd5b505050506040513d6000823e3d601f19601f82011682018060405250610f789190810190611db6565b90508673ffffffffffffffffffffffffffffffffffffffff1663095ea7b3600660009054906101000a900473ffffffffffffffffffffffffffffffffffffffff1683600181518110610fc657fe5b60200260200101516040518363ffffffff1660e01b8152600401610feb9291906123fc565b602060405180830381600087803b15801561100557600080fd5b505af1158015611019573d6000803e3d6000fd5b505050506040513d601f19601f8201168201806040525061103d9190810190611df7565b506060600e60009054906101000a900473ffffffffffffffffffffffffffffffffffffffff1673ffffffffffffffffffffffffffffffffffffffff166338ed17398360018151811061108b57fe5b602002602001015160018730426040518663ffffffff1660e01b81526004016110b89594939291906125ae565b600060405180830381600087803b1580156110d257600080fd5b505af11580156110e6573d6000803e3d6000fd5b505050506040513d6000823e3d601f19601f8201168201806040525061110f9190810190611db6565b905050505050505050505050565b600860009054906101000a900473ffffffffffffffffffffffffffffffffffffffff1673ffffffffffffffffffffffffffffffffffffffff16600f60009054906101000a900473ffffffffffffffffffffffffffffffffffffffff1673ffffffffffffffffffffffffffffffffffffffff1663e6a4390585856040518363ffffffff1660e01b81526004016111b3929190612425565b60206040518083038186803b1580156111cb57600080fd5b505afa1580156111df573d6000803e3d6000fd5b505050506040513d601f19601f820116820180604052506112039190810190611c5b565b73ffffffffffffffffffffffffffffffffffffffff16141561125a576040517f08c379a000000000000000000000000000000000000000000000000000000000815260040161125190612513565b60405180910390fd5b600860009054906101000a900473ffffffffffffffffffffffffffffffffffffffff1673ffffffffffffffffffffffffffffffffffffffff16600f60009054906101000a900473ffffffffffffffffffffffffffffffffffffffff1673ffffffffffffffffffffffffffffffffffffffff1663e6a4390584846040518363ffffffff1660e01b81526004016112f0929190612425565b60206040518083038186803b15801561130857600080fd5b505afa15801561131c573d6000803e3d6000fd5b505050506040513d601f19601f820116820180604052506113409190810190611c5b565b73ffffffffffffffffffffffffffffffffffffffff161415611397576040517f08c379a000000000000000000000000000000000000000000000000000000000815260040161138e90612553565b60405180910390fd5b600860009054906101000a900473ffffffffffffffffffffffffffffffffffffffff1673ffffffffffffffffffffffffffffffffffffffff16600f60009054906101000a900473ffffffffffffffffffffffffffffffffffffffff1673ffffffffffffffffffffffffffffffffffffffff1663e6a4390583866040518363ffffffff1660e01b815260040161142d929190612425565b60206040518083038186803b15801561144557600080fd5b505afa158015611459573d6000803e3d6000fd5b505050506040513d601f19601f8201168201806040525061147d9190810190611c5b565b73ffffffffffffffffffffffffffffffffffffffff1614156114d4576040517f08c379a00000000000000000000000000000000000000000000000000000000081526004016114cb906124f3565b60405180910390fd5b505050565b8273ffffffffffffffffffffffffffffffffffffffff1663095ea7b36000809054906101000a900473ffffffffffffffffffffffffffffffffffffffff16600185016040518363ffffffff1660e01b8152600401611538929190612493565b602060405180830381600087803b15801561155257600080fd5b505af1158015611566573d6000803e3d6000fd5b505050506040513d601f19601f8201168201806040525061158a9190810190611df7565b50606060016040519080825280602002602001820160405280156115c857816020015b6115b5611948565b8152602001906001900390816115ad5790505b5090506060600360405190808252806020026020018201604052801561160857816020015b6115f5611978565b8152602001906001900390816115ed5790505b50905060405180604001604052803073ffffffffffffffffffffffffffffffffffffffff16815260200160008152508260008151811061164457fe5b60200260200101819052506116576119e4565b604051806080016040528060001515815260200160008081111561167757fe5b815260200160008081111561168857fe5b815260200186815250905061169b611a22565b6001816000019060088111156116ad57fe5b908160088111156116ba57fe5b8152505060008160200181815250508181604001819052506116db87610880565b816060018181525050308160a0019073ffffffffffffffffffffffffffffffffffffffff16908173ffffffffffffffffffffffffffffffffffffffff1681525050808360008151811061172a57fe5b602002602001018190525061173d611a22565b60088160000190600881111561174f57fe5b9081600881111561175c57fe5b815250506000816020018181525050308160a0019073ffffffffffffffffffffffffffffffffffffffff16908173ffffffffffffffffffffffffffffffffffffffff1681525050858160e0018190525080846001815181106117ba57fe5b60200260200101819052506117cd611a22565b6117d56119e4565b60405180608001604052806001151581526020016000808111156117f557fe5b815260200160008081111561180657fe5b815260200160018b01815250905060008260000190600881111561182657fe5b9081600881111561183357fe5b8152505060008260200181815250508082604001819052506118548a610880565b826060018181525050308260a0019073ffffffffffffffffffffffffffffffffffffffff16908173ffffffffffffffffffffffffffffffffffffffff168152505081866002815181106118a357fe5b60200260200101819052506000809054906101000a900473ffffffffffffffffffffffffffffffffffffffff1673ffffffffffffffffffffffffffffffffffffffff1663a67a6a4588886040518363ffffffff1660e01b815260040161190a9291906124bc565b600060405180830381600087803b15801561192457600080fd5b505af1158015611938573d6000803e3d6000fd5b5050505050505050505050505050565b6040518060400160405280600073ffffffffffffffffffffffffffffffffffffffff168152602001600081525090565b6040518061010001604052806000600881111561199157fe5b8152602001600081526020016119a5611a8e565b81526020016000815260200160008152602001600073ffffffffffffffffffffffffffffffffffffffff16815260200160008152602001606081525090565b6040518060800160405280600015158152602001600080811115611a0457fe5b8152602001600080811115611a1557fe5b8152602001600081525090565b60405180610100016040528060006008811115611a3b57fe5b815260200160008152602001611a4f611a8e565b81526020016000815260200160008152602001600073ffffffffffffffffffffffffffffffffffffffff16815260200160008152602001606081525090565b6040518060800160405280600015158152602001600080811115611aae57fe5b8152602001600080811115611abf57fe5b8152602001600081525090565b600081359050611adb816128b1565b92915050565b600081519050611af0816128b1565b92915050565b600081359050611b05816128c8565b92915050565b600082601f830112611b1c57600080fd5b8151611b2f611b2a82612635565b612608565b91508181835260208401935060208101905083856020840282011115611b5457600080fd5b60005b83811015611b845781611b6a8882611c1d565b845260208401935060208301925050600181019050611b57565b5050505092915050565b600081519050611b9d816128df565b92915050565b60008083601f840112611bb557600080fd5b8235905067ffffffffffffffff811115611bce57600080fd5b602083019150836001820283011115611be657600080fd5b9250929050565b600060408284031215611bff57600080fd5b81905092915050565b600081359050611c17816128f6565b92915050565b600081519050611c2c816128f6565b92915050565b600060208284031215611c4457600080fd5b6000611c5284828501611acc565b91505092915050565b600060208284031215611c6d57600080fd5b6000611c7b84828501611ae1565b91505092915050565b60008060008060808587031215611c9a57600080fd5b6000611ca887828801611af6565b9450506020611cb987828801611af6565b9350506040611cca87828801611af6565b9250506060611cdb87828801611c08565b91505092959194509250565b60008060008060808587031215611cfd57600080fd5b6000611d0b87828801611acc565b9450506020611d1c87828801611acc565b9350506040611d2d87828801611acc565b9250506060611d3e87828801611c08565b91505092959194509250565b60008060008060808587031215611d6057600080fd5b6000611d6e87828801611acc565b9450506020611d7f87828801611bed565b935050606085013567ffffffffffffffff811115611d9c57600080fd5b611da887828801611ba3565b925092505092959194509250565b600060208284031215611dc857600080fd5b600082015167ffffffffffffffff811115611de257600080fd5b611dee84828501611b0b565b91505092915050565b600060208284031215611e0957600080fd5b6000611e1784828501611b8e565b91505092915050565b600060208284031215611e3257600080fd5b6000611e4084828501611c1d565b91505092915050565b6000611e558383611eab565b60208301905092915050565b6000611e6d8383612256565b905092915050565b6000611e81838361235e565b60408301905092915050565b611e96816127c8565b82525050565b611ea581612747565b82525050565b611eb481612735565b82525050565b611ec381612735565b82525050565b6000611ed48261268d565b611ede81856126e0565b9350611ee98361265d565b8060005b83811015611f1a578151611f018882611e49565b9750611f0c836126b9565b925050600181019050611eed565b5085935050505092915050565b6000611f3282612698565b611f3c81856126f1565b935083602082028501611f4e8561266d565b8060005b85811015611f8a5784840389528151611f6b8582611e61565b9450611f76836126c6565b925060208a01995050600181019050611f52565b50829750879550505050505092915050565b6000611fa7826126a3565b611fb18185612702565b9350611fbc8361267d565b8060005b83811015611fed578151611fd48882611e75565b9750611fdf836126d3565b925050600181019050611fc0565b5085935050505092915050565b61200381612759565b82525050565b6000612014826126ae565b61201e8185612713565b935061202e818560208601612846565b61203781612879565b840191505092915050565b61204b816127da565b82525050565b61205a816127ec565b82525050565b612069816127fe565b82525050565b61207881612810565b82525050565b600061208b602483612724565b91507f746f6b656e4320746f20746f6b656e41206973206e6f7420612076616c69642060008301527f70616972000000000000000000000000000000000000000000000000000000006020830152604082019050919050565b60006120f1602483612724565b91507f746f6b656e4120746f20746f6b656e42206973206e6f7420612076616c69642060008301527f70616972000000000000000000000000000000000000000000000000000000006020830152604082019050919050565b6000612157602c83612724565b91507f466c6173684c6f616e3a20636f756c642062652063616c6c656420627920447960008301527f447820706f6f6c206f6e6c7900000000000000000000000000000000000000006020830152604082019050919050565b60006121bd602483612724565b91507f746f6b656e4220746f20746f6b656e43206973206e6f7420612076616c69642060008301527f70616972000000000000000000000000000000000000000000000000000000006020830152604082019050919050565b6000612223601c83612724565b91507f466c6173684c6f616e3a20556e737570706f7274656420746f6b656e000000006000830152602082019050919050565b60006101608301600083015161226f6000860182612042565b506020830151612282602086018261238d565b5060408301516122956040860182612309565b5060608301516122a860c086018261238d565b5060808301516122bb60e086018261238d565b5060a08301516122cf610100860182611eab565b5060c08301516122e361012086018261238d565b5060e08301518482036101408601526122fc8282612009565b9150508091505092915050565b60808201600082015161231f6000850182611ffa565b5060208201516123326020850182612051565b5060408201516123456040850182612060565b506060820151612358606085018261238d565b50505050565b6040820160008201516123746000850182611eab565b506020820151612387602085018261238d565b50505050565b612396816127be565b82525050565b6123a5816127be565b82525050565b60006020820190506123c06000830184611eba565b92915050565b60006020820190506123db6000830184611e8d565b92915050565b60006020820190506123f66000830184611e9c565b92915050565b60006040820190506124116000830185611e8d565b61241e602083018461239c565b9392505050565b600060408201905061243a6000830185611eba565b6124476020830184611eba565b9392505050565b60006080820190506124636000830187611eba565b6124706020830186611eba565b61247d6040830185611eba565b61248a606083018461239c565b95945050505050565b60006040820190506124a86000830185611eba565b6124b5602083018461239c565b9392505050565b600060408201905081810360008301526124d68185611f9c565b905081810360208301526124ea8184611f27565b90509392505050565b6000602082019050818103600083015261250c8161207e565b9050919050565b6000602082019050818103600083015261252c816120e4565b9050919050565b6000602082019050818103600083015261254c8161214a565b9050919050565b6000602082019050818103600083015261256c816121b0565b9050919050565b6000602082019050818103600083015261258c81612216565b9050919050565b60006020820190506125a8600083018461239c565b92915050565b600060a0820190506125c3600083018861239c565b6125d0602083018761206f565b81810360408301526125e28186611ec9565b90506125f16060830185611e8d565b6125fe608083018461239c565b9695505050505050565b6000604051905081810181811067ffffffffffffffff8211171561262b57600080fd5b8060405250919050565b600067ffffffffffffffff82111561264c57600080fd5b602082029050602081019050919050565b6000819050602082019050919050565b6000819050602082019050919050565b6000819050602082019050919050565b600081519050919050565b600081519050919050565b600081519050919050565b600081519050919050565b6000602082019050919050565b6000602082019050919050565b6000602082019050919050565b600082825260208201905092915050565b600082825260208201905092915050565b600082825260208201905092915050565b600082825260208201905092915050565b600082825260208201905092915050565b60006127408261279e565b9050919050565b60006127528261279e565b9050919050565b60008115159050919050565b60008190506127738261288a565b919050565b600081905061278682612897565b919050565b6000819050612799826128a4565b919050565b600073ffffffffffffffffffffffffffffffffffffffff82169050919050565b6000819050919050565b60006127d382612822565b9050919050565b60006127e582612765565b9050919050565b60006127f782612778565b9050919050565b60006128098261278b565b9050919050565b600061281b826127be565b9050919050565b600061282d82612834565b9050919050565b600061283f8261279e565b9050919050565b60005b83811015612864578082015181840152602081019050612849565b83811115612873576000848401525b50505050565b6000601f19601f8301169050919050565b6009811061289457fe5b50565b600181106128a157fe5b50565b600181106128ae57fe5b50565b6128ba81612735565b81146128c557600080fd5b50565b6128d181612747565b81146128dc57600080fd5b50565b6128e881612759565b81146128f357600080fd5b50565b6128ff816127be565b811461290a57600080fd5b5056fea365627a7a723158205ea689f5e8212332e1f100eb8d0d6e95e415e6339a92e258d75c6fc5a319da396c6578706572696d656e74616cf564736f6c63430005110040",
  "source": "pragma solidity ^0.5.17;\r\npragma experimental ABIEncoderV2;\r\n\r\ninterface Structs {\r\n    struct Val {\r\n        uint256 value;\r\n    }\r\n\r\n    enum ActionType {\r\n      Deposit,   // supply tokens\r\n      Withdraw,  // borrow tokens\r\n      Transfer,  // transfer balance between accounts\r\n      Buy,       // buy an amount of some token (externally)\r\n      Sell,      // sell an amount of some token (externally)\r\n      Trade,     // trade tokens against another account\r\n      Liquidate, // liquidate an undercollateralized or expiring account\r\n      Vaporize,  // use excess tokens to zero-out a completely negative account\r\n      Call       // send arbitrary data to an address\r\n    }\r\n\r\n    enum AssetDenomination {\r\n        Wei // the amount is denominated in wei\r\n    }\r\n\r\n    enum AssetReference {\r\n        Delta // the amount is given as a delta from the current value\r\n    }\r\n\r\n    struct AssetAmount {\r\n        bool sign; // true if positive\r\n        AssetDenomination denomination;\r\n        AssetReference ref;\r\n        uint256 value;\r\n    }\r\n\r\n    struct ActionArgs {\r\n        ActionType actionType;\r\n        uint256 accountId;\r\n        AssetAmount amount;\r\n        uint256 primaryMarketId;\r\n        uint256 secondaryMarketId;\r\n        address otherAddress;\r\n        uint256 otherAccountId;\r\n        bytes data;\r\n    }\r\n\r\n    struct Info {\r\n        address owner;  // The address that owns the account\r\n        uint256 number; // A nonce that allows a single address to control many accounts\r\n    }\r\n\r\n    struct Wei {\r\n        bool sign; // true if positive\r\n        uint256 value;\r\n    }\r\n}\r\n\r\ncontract DyDxPool is Structs {\r\n    function getAccountWei(Info memory account, uint256 marketId) public view returns (Wei memory);\r\n    function operate(Info[] memory, ActionArgs[] memory) public;\r\n}\r\n\r\n// File: contracts/IERC20.sol\r\n\r\npragma solidity ^0.5.0;\r\n\r\n\r\n/**\r\n * @dev Interface of the ERC20 standard as defined in the EIP. Does not include\r\n * the optional functions; to access them see `ERC20Detailed`.\r\n */\r\ninterface IERC20 {\r\n    function balanceOf(address account) external view returns (uint256);\r\n\r\n    function approve(address spender, uint256 amount) external returns (bool);\r\n}\r\n\r\n// File: contracts/dydx/DyDxFlashLoan.sol\r\n\r\npragma solidity ^0.5.0;\r\n\r\n\r\n\r\n\r\ncontract DyDxFlashLoan is Structs {\r\n    DyDxPool pool = DyDxPool(0x4EC3570cADaAEE08Ae384779B0f3A45EF85289DE);                       // KOVAN SOLO MARGIN ADDRESS\r\n\r\n    address payable public  WETH = 0xd0A1E359811322d97991E03f863a0C30C2cF029C;                  // KOVAN WETH ADDRESS\r\n    address payable public SAI = 0x89d24A6b4CcB1B6fAA2625fE562bDD9a23260359;\r\n    address payable public USDC = 0xe22da380ee6B445bb8273C81944ADEB6E8450422;                   // KOVAN NOT WORKING ON KOVAN \r\n    address payable public DAI = 0xC4375B7De8af5a38a93548eb8453a498222C4fF2;                    // KOVAN DAI ADDRESS\r\n    \r\n\r\n    mapping(address => uint256) public currencies;\r\n\r\n    constructor() public {\r\n        currencies[WETH] = 1;\r\n        currencies[SAI] = 2;\r\n        currencies[USDC] = 3;\r\n        currencies[DAI] = 4;\r\n    }\r\n\r\n    modifier onlyPool() {\r\n        require(\r\n            msg.sender == address(pool),\r\n            \"FlashLoan: could be called by DyDx pool only\"\r\n        );\r\n        _;\r\n    }\r\n\r\n    function tokenToMarketId(address token) public view returns (uint256) {\r\n        uint256 marketId = currencies[token];\r\n        require(marketId != 0, \"FlashLoan: Unsupported token\");\r\n        return marketId - 1;\r\n    }\r\n\r\n    // the DyDx will call `callFunction(address sender, Info memory accountInfo, bytes memory data) public` after during `operate` call\r\n    function flashloan(address token, uint256 amount, bytes memory data)\r\n        internal\r\n    {\r\n        IERC20(token).approve(address(pool), amount + 1);\r\n        Info[] memory infos = new Info[](1);\r\n        ActionArgs[] memory args = new ActionArgs[](3);\r\n\r\n        infos[0] = Info(address(this), 0);\r\n\r\n        AssetAmount memory wamt = AssetAmount(\r\n            false,\r\n            AssetDenomination.Wei,\r\n            AssetReference.Delta,\r\n            amount\r\n        );\r\n        ActionArgs memory withdraw;\r\n        withdraw.actionType = ActionType.Withdraw;\r\n        withdraw.accountId = 0;\r\n        withdraw.amount = wamt;\r\n        withdraw.primaryMarketId = tokenToMarketId(token);\r\n        withdraw.otherAddress = address(this);\r\n\r\n        args[0] = withdraw;\r\n\r\n        ActionArgs memory call;\r\n        call.actionType = ActionType.Call;\r\n        call.accountId = 0;\r\n        call.otherAddress = address(this);\r\n        call.data = data;\r\n\r\n        args[1] = call;\r\n\r\n        ActionArgs memory deposit;\r\n        AssetAmount memory damt = AssetAmount(\r\n            true,\r\n            AssetDenomination.Wei,\r\n            AssetReference.Delta,\r\n            amount + 1\r\n        );\r\n        deposit.actionType = ActionType.Deposit;\r\n        deposit.accountId = 0;\r\n        deposit.amount = damt;\r\n        deposit.primaryMarketId = tokenToMarketId(token);\r\n        deposit.otherAddress = address(this);\r\n\r\n        args[2] = deposit;\r\n\r\n        pool.operate(infos, args);\r\n    }\r\n}\r\n\r\n// File: contracts/FlashloanTaker.sol\r\n\r\npragma solidity ^0.5.0;\r\n\r\ninterface ERC20 {\r\n    function totalSupply() external view returns (uint supply);\r\n    function balanceOf(address _owner) external view returns (uint balance);\r\n    function transfer(address _to, uint _value) external returns (bool success);\r\n    function transferFrom(address _from, address _to, uint _value) external returns (bool success);\r\n    function approve(address _spender, uint _value) external returns (bool success);\r\n    function allowance(address _owner, address _spender) external view returns (uint remaining);\r\n    function decimals() external view returns(uint digits);\r\n    event Approval(address indexed _owner, address indexed _spender, uint _value);\r\n}\r\n\r\ninterface IUniV2_RouterInterface {\r\n    function swapExactTokensForTokens(uint amountIn, uint amountOutMin, address[] calldata path, address to, uint deadline) external returns (uint[] memory amounts);\r\n    function swapTokensForExactTokens(uint amountOut, uint amountInMax, address[] calldata path, address to, uint deadline) external returns (uint[] memory amounts);\r\n    function swapExactETHForTokens(uint amountOutMin, address[] calldata path, address to, uint deadline) external payable returns (uint[] memory amounts);\r\n    function swapTokensForExactETH(uint amountOut, uint amountInMax, address[] calldata path, address to, uint deadline) external returns (uint[] memory amounts);\r\n    function swapExactTokensForETH(uint amountIn, uint amountOutMin, address[] calldata path, address to, uint deadline) external returns (uint[] memory amounts);\r\n    function swapETHForExactTokens(uint amountOut, address[] calldata path, address to, uint deadline) external payable returns (uint[] memory amounts);\r\n}\r\n\r\ninterface IUniV2_FactoryInterface {\r\n    event PairCreated(address indexed token0, address indexed token1, address pair, uint);\r\n\r\n    function feeTo() external view returns (address);\r\n    function feeToSetter() external view returns (address);\r\n\r\n    function getPair(address tokenA, address tokenB) external view returns (address pair);\r\n    function allPairs(uint) external view returns (address pair);\r\n    function allPairsLength() external view returns (uint);\r\n\r\n    function createPair(address tokenA, address tokenB) external returns (address pair);\r\n\r\n    function setFeeTo(address) external;\r\n    function setFeeToSetter(address) external;\r\n}\r\n\r\ninterface IWETH {\r\n  function deposit() external payable;\r\n  function withdraw(uint wad) external;\r\n  function totalSupply() external view returns (uint);\r\n  function approve(address guy, uint wad) external returns (bool);\r\n  function transfer(address dst, uint wad) external returns (bool);\r\n  function transferFrom(address src, address dst, uint wad) external returns (bool);\r\n  function () external payable;\r\n}\r\n\r\n\r\ncontract UniFlash_KOVAN is DyDxFlashLoan {\r\n    \r\n    address payable public uniswapV2_routerAddress = 0x7a250d5630B4cF539739dF2C5dAcb4c659F2488D;      // KOVAN Uniswap V2 Router2\r\n    address payable public uniswapV2_factoryAddress = 0x5C69bEe701ef814a2B6a3EDD4B1652CB9cc5aA6f; \r\n                            \r\n    address internal null_address = 0x0000000000000000000000000000000000000000;\r\n\r\n    address payable public contract_address = address(this);\r\n    address public owner;\r\n    uint256 public flashAmount;\r\n    bytes  PERM_HINT = \"PERM\";\r\n\r\n    IWETH IWETH_Contract = IWETH(WETH);\r\n    IUniV2_RouterInterface unirouter = IUniV2_RouterInterface(uniswapV2_routerAddress);\r\n    IUniV2_FactoryInterface unifactory = IUniV2_FactoryInterface(uniswapV2_factoryAddress);\r\n\r\n    \r\n    modifier onlyOwner() {\r\n        if (msg.sender != owner) {\r\n            revert();\r\n        }\r\n        _;\r\n    }\r\n\r\n    constructor() public payable {\r\n        owner = msg.sender;\r\n        (bool success, ) = WETH.call.value(msg.value)(\"\");\r\n        require(success, \"fail to get weth\");\r\n    }\r\n\r\n    function transferOnwership(address newOwner) public onlyOwner {\r\n        owner = newOwner; \r\n    }\r\n\r\n    function threeway(address a, address b, address c, uint256 amount) internal {\r\n        // make path 1\r\n        address[] memory path1 = new address[](2);\r\n            path1[0] = address(a);\r\n            path1[1] = address(b);\r\n            \r\n        // make path 2\r\n        address[] memory path2 = new address[](2);\r\n            path2[0] = address(b);\r\n            path2[1] = address(c);\r\n            \r\n        // make path 3\r\n        address[] memory path3 = new address[](2);\r\n            path3[0] = address(c);\r\n            path3[1] = address(a);\r\n        \r\n        // approve the tokens to the unirouter\r\n        ERC20(a).approve(uniswapV2_routerAddress, amount);\r\n        // do the swap \r\n        uint256[] memory amounts1 = unirouter.swapExactTokensForTokens(amount, 1, path1, address(this), block.timestamp);\r\n\r\n        // approve the tokens to the unirouter\r\n        ERC20(b).approve(uniswapV2_routerAddress, amounts1[1]);\r\n        // do the swap \r\n        uint256[] memory amounts2 = unirouter.swapExactTokensForTokens(amounts1[1], 1, path2, address(this), block.timestamp);\r\n\r\n        // approve the tokens to the unirouter\r\n        ERC20(c).approve(uniswapV2_routerAddress, amounts2[1]);\r\n        // do the swap \r\n        uint256[] memory amounts3 = unirouter.swapExactTokensForTokens(amounts2[1], 1, path3, address(this), block.timestamp);\r\n\r\n    }\r\n\r\n\r\n    function getFlashloan(address tokenA, address tokenB, address tokenC, uint256 flashAmount) external {\r\n        // check if uniswap has a pair \r\n        doPairCheck(tokenA, tokenB, tokenC);\r\n        \r\n        bytes memory data = abi.encode(tokenA, tokenB, tokenC, flashAmount );\r\n        flashloan(tokenA, flashAmount ,data ); // execution goes to `callFunction`\r\n       \r\n        // and this point we have succefully paid the dept\r\n    }\r\n    \r\n    \r\n    function callFunction(address, /* sender */ Info calldata, /* accountInfo */bytes calldata data) external onlyPool {\r\n        (address tokenA, address tokenB, address tokenC, uint256 flashAmount) = abi.decode(data, (address, address, address, uint256));\r\n    \r\n        // the dept will be automatically withdrawn from this contract at the end of execution\r\n\r\n        threeway(tokenA, tokenB, tokenC, flashAmount);\r\n\r\n\r\n    }\r\n\r\n    function doPairCheck(address a, address b, address c) internal view {\r\n        require(unifactory.getPair(a, b) != null_address, 'tokenA to tokenB is not a valid pair');\r\n        require(unifactory.getPair(b, c) != null_address, 'tokenB to tokenC is not a valid pair');\r\n        require(unifactory.getPair(c, a) != null_address, 'tokenC to tokenA is not a valid pair');\r\n    }\r\n\r\n    // 3. Withdraw ETH - input tokenAddress\r\n    function withdrawETH() external onlyOwner{\r\n        // 3.1 withdraw ALL ETH to msg.sender\r\n        msg.sender.transfer(address(this).balance);\r\n        \r\n    }\r\n\r\n    // 3. Withdraw Token - input tokenAddress\r\n    function withdrawToken(address token) external onlyOwner{\r\n       \r\n        // 3.2 get token balance \r\n        uint256 balance = ERC20(token).balanceOf(contract_address);\r\n        \r\n        // 3.4 approve token_balance\r\n        ERC20(token).approve(contract_address, balance); \r\n        \r\n        // 3.5 withdraw ALL token to msg.sender\r\n        ERC20(token).transfer(msg.sender, balance);\r\n        \r\n    }\r\n   \r\n    function () external payable {}\r\n}",
  "sourcePath": "C:/Users/ROSTON/dev/upwork/Uniswap_flashloan/contracts/uniflash_KOVAN.sol",
  "compiler": {
    "name": "solc",
    "version": "0.5.17+commit.d19bba13.Emscripten.clang"
  },
  "schemaVersion": "3.2.3",
  "updatedAt": "2020-12-01T18:11:53.900Z",
  "networkType": "ethereum",
  "devdoc": {
    "methods": {}
  },
  "userdoc": {
    "methods": {}
  }
}